:10400000001000205D470000B9470000B9470000DC
:1040100000000000000000000000000000000000A0
:10402000000000000000000000000000B947000090
:104030000000000000000000B9470000B947000080
:10404000B9470000B9470000B9470000B947000070
:10405000B9470000B9470000B9470000B947000060
:10406000B9470000B9470000B9470000B947000050
:10407000B9470000B9470000B9470000B947000040
:10408000B9470000B9470000B9470000B947000030
:10409000B9470000B9470000B9470000B947000020
:1040A000B9470000B9470000B9470000B947000010
:1040B000B9470000B9470000B9470000B947000000
:1040C000B9470000B9470000B9470000B9470000F0
:1040D000B9470000B9470000B9470000B9470000E0
:1040E000B9470000B9470000B9470000B9470000D0
:1040F000B9470000B9470000B9470000B9470000C0
:10410000B9470000B9470000B9470000B9470000AF
:10411000B9470000B9470000B9470000B94700009F
:10412000B9470000B9470000B9470000B94700008F
:10413000B9470000B9470000B9470000B94700007F
:1041400010B5064C2378002B07D1054B002B02D06D
:10415000044800E000BF0123237010BD5808002070
:104160000000000038680000044B10B5002B03D09D
:104170000349044800E000BF10BDC0460000000035
:104180005C08002038680000402292029A1A924689
:104190007047C046174B002B00D1134B9D46FFF7CD
:1041A000F3FF00218B460F461348144A121A00F001
:1041B00003FC0E4B002B00D098470D4B002B00D07A
:1041C00098470020002104000D000D48002802D06F
:1041D0000C4800F055FD00F0CDFB2000290000F058
:1041E0008BF800F0B7FBC04600000800000000009C
:1041F000000000000010002058080020C80800201F
:10420000814C0000E14D000010B516205924882192
:10421000034B5C60586059605A68002AF9D010BDA1
:10422000FC0000408022074B120499691142FCD126
:1042300018600A2804D199691142FCD10D221A6034
:104240007047C0460000074010B50400002020560B
:10425000002800D110BD0134FFF7E4FFF6E70000AD
:104260000B4B282110B50400186800F0E1FA002378
:104270002E21084A1360084BD9602D395C60196102
:10428000013801D2106002E019690029F8D110BD8F
:10429000040000207808002000C0004010B5FFF79F
:1042A000B3FF042000F024F9102000F037F90021BA
:1042B000052000F053F911220C4B0D4C5A632000DD
:1042C00000F01EF9C02100222000890200F0D0F881
:1042D0008023DB05DA6B07491140CC22D2030A4365
:1042E000DA630022FC335A6010BDC0460002004071
:1042F000103D006FFFFF00FF70B5FFF7CFFFFFF726
:1043000083FFE1213948490200F098F900F086F96D
:104310003748FFF799FF374C2000FFF795FF3648E5
:10432000FFF792FF2000FFF78FFF3448FFF78CFF65
:10433000334B34481D6C344B1C241D40FFF784FF65
:104340003248FFF781FF0F23043C002C03D02A00E2
:10435000E2401A42F8D00F262800E04030400928F9
:104360002CD83030FFF75EFF043CF5D52848FFF726
:104370006BFF2848FFF768FF2748FFF765FF2748CE
:10438000FFF762FF8022194BD201996908001040A3
:104390001142FAD11B685BB2312B11D0322B12D0F3
:1043A000302B01D180208001FFF75AFF1C4B1C6885
:1043B000002C0AD01B4800F0A3FBFEE73730D1E702
:1043C0008020C001F0E7C020FBE700F02FF900F0EB
:1043D0001DF9154B15485C60FFF736FF8022D205AA
:1043E0001368002B00D170BD30BFF9E70000074013
:1043F0001C6700001F6700003E6700005D6700004B
:1044000000C000406F67000000FEFF0079670000F9
:104410001D6700007C67000095670000B067000022
:1044200078080020CB670000FC000040E96700002E
:1044300010B500F0C3F90722034B5B6B1340034A2E
:104440001068D84010BDC0460002004004000020A3
:1044500010B500F0B3F9044B044A5B6B10685B06BF
:104460005B0FD84010BDC046000200400400002091
:10447000F0B51C4D8BB002AC01922E0022008C4690
:104480008ACE8AC236682B00166006AA1600103340
:10449000A2CBA2C61B683360830ADBB2002B0DD00F
:1044A0008705FF0EBB400603B60FB600B6580E4A8E
:1044B000B61832689A43019B1A43326003015B0FBE
:1044C0000DD08200C001C00E83406146920F920061
:1044D000A458064AA41822689A43114321600BB0DD
:1044E000F0BDC046F067000020020040100200400E
:1044F000024A1368034313607047C046000200403D
:10450000054A830F9B009B181F2210401E3A8240D1
:1045100019680A431A607047040200400C4B0200FD
:10452000186800230B4910B50B4C40080B60236D35
:104530001340934203D1002808D1013002E0013832
:104540000028F4D101235B420B6010BD0120FCE781
:10455000040000207408002000020040F0B5042789
:10456000244C85B0236D01900293236803913B4353
:1045700023601020FFF7D2FF072205230F262169B1
:104580001D4D91430B432361EB6CB3431F43EF6419
:10459000216A039BB1431943216223699343019A22
:1045A0001343236100F00AF9144B1A68144BD11815
:1045B000144B994210D80323EA6CB2431343EB64C3
:1045C000019B052B06D0029BDB0603D40422236843
:1045D0009343236005B0F0BD0B495118994203D8AD
:1045E000EA6C0223B243E9E79A42E9D8EA6C012374
:1045F000B243E3E70002004000C000400400002096
:10460000800F05FD3F787D01C08782FE0121024AAF
:1046100013688B431360704700C000400123024AB7
:1046200011680B431360704700C0004080220223D2
:10463000D20591680B439360704700000023F0B5EA
:10464000294A89B00692294A03AF05000E00039358
:104650007B60BB603B61904233D1254B9C69196AFA
:104660006403640F09050B0F019300232B630333CD
:10467000EB60AB681F490B40AB60042C04D1954242
:1046800029D1FFF7D5FE3861002E18D00199A4007A
:104690003859013100F0CCF80400700831000019DD
:1046A00000F0C6F88022831E5202934216D3F00017
:1046B0003100001900F0BCF800090238686209B046
:1046C000F0BD0D4B9842D0D1094B9C69196A640228
:1046D000640F0904C7E7FFF7BBFED4E7C0208005DD
:1046E00003436B62EBE7C04600366E0100000740F3
:1046F000000200400FFFF0FF0010074010B500F06F
:1047000023F9582303600120404210BD10B500F08A
:104710001BF9582303600120404210BD10B500F082
:1047200013F958230360002010BD10B500F00CF9F8
:10473000582303600120404210BD10B500F004F979
:10474000582303600120404210BD10B500F0FCF872
:10475000582303600120404210BD00001049114A57
:10476000114B9B1A03DD043BC858D050FBDC0F48AB
:1047700040F25901016040F21601016040F28801E7
:10478000016000F03FF80A4845F6A521016009489C
:104790000160064840F200010160FFF7FBFC0000E9
:1047A000446800000000002058080020000100407C
:1047B00024000040EC010040FEE7C0460B4A10B563
:1047C0001369116A0722134008321140084A9B00FE
:1047D0009858013100F02CF8064B07491860074B38
:1047E000C01800F025F8064B186010BD000200400C
:1047F000106800000400002040420F0020A10700C4
:104800000000002010B5162059248821064B5C605A
:10481000586059605A68002AF9D00121034A116092
:1048200000225A6010BDC046FC000040B0020040AB
:10483000002243088B4274D303098B425FD3030ADF
:104840008B4244D3030B8B4228D3030C8B420DD3F2
:10485000FF22090212BA030C8B4202D31212090280
:1048600065D0030B8B4219D300E0090AC30B8B42BE
:1048700001D3CB03C01A5241830B8B4201D38B036C
:10488000C01A5241430B8B4201D34B03C01A524111
:10489000030B8B4201D30B03C01A5241C30A8B4254
:1048A00001D3CB02C01A5241830A8B4201D38B023F
:1048B000C01A5241430A8B4201D34B02C01A5241E3
:1048C000030A8B4201D30B02C01A5241CDD2C30955
:1048D0008B4201D3CB01C01A524183098B4201D3D1
:1048E0008B01C01A524143098B4201D34B01C01ABC
:1048F000524103098B4201D30B01C01A5241C30834
:104900008B4201D3CB00C01A524183088B4201D3A2
:104910008B00C01A524143088B4201D34B00C01A8E
:104920005241411A00D20146524110467047FFE7FA
:1049300001B5002000F006F802BDC0460029F7D0FE
:1049400076E770477047C046014B18687047C0460D
:104950000800002010B50021040000F015F9044BF8
:104960001868C36B002B00D09847200001F0C8FEE8
:104970003068000070B50C4D0C4E761BB61005D09B
:10498000002408CD01349847A642FAD101F0BAFEBE
:10499000074D084E761BB61005D0002408CD013413
:1049A0009847A642FAD170BD4C0800204C08002060
:1049B0004C08002054080020F0B50500830749D0BA
:1049C000541E002A45D003000326CAB202E0013576
:1049D000013C3ED301332A703342F8D1032C30D945
:1049E000FF220A40150215432A0415430F2C34D91F
:1049F0002700103F3F093E01B4461E001A00103642
:104A00006644156055609560D5601032B242F8D1A9
:104A100001373F01DB190F270C22274022403C00C1
:104A2000002A0ED03E1FB608B400A4461A001C1D72
:104A3000644420C2A242FCD103240136B6009B1973
:104A40003C40002C05D0C9B21C19197001339C429E
:104A5000FBD1F0BD03001400C0E72700E2E7C04629
:104A600030B5050089B008000C0000F053F804AB25
:104A7000214A01930223069201220293AB6B059017
:104A8000013004940792AC680390002B2BD0636E26
:104A9000DB0724D4A2890C23E15E93051CD5802377
:104AA0009B011A4205D10B43626EA381134B134045
:104AB00063662800210001AA00F0A6F9431E984170
:104AC0000A25636E40420543DB0702D4A3899B0598
:104AD0000DD5280009B030BDA06D00F037FB0C23C8
:104AE000E15EA289DBE7280000F0DAF8CFE7A06DED
:104AF00000F02EFBEDE7C04634680000FFDFFFFF4B
:104B000010B5034B01001868FFF7AAFF10BDC0469F
:104B10000800002010B583070AD00300032102E03B
:104B200001330B4205D01A78002AF9D1181A10BDAA
:104B3000030019680C4A0D4C8A188A4322420FD18F
:104B40005968094A04338A188A43224208D15968AD
:104B5000054A04338A188A432242F1D000E0013327
:104B60001A78002AFBD1E1E7FFFEFEFE80808080FC
:104B7000034B10B5002B02D0024800F081F810BDA5
:104B800000000000E14D0000F0B54E46DE465746FD
:104B90004546E0B5384B83B01B6801901800009380
:104BA000894600F0D3FAA422344B52001B689E5869
:104BB0000093002E3CD075686C1E39D40135AD00D1
:104BC0002B0080339846C4235B009B467719013540
:104BD000FF35B0447519B34407E004235B429C469B
:104BE000043FE044ED18013C22D34B46002B02D099
:104BF0002B684B45F1D173683A68013BA34234D02E
:104C000000233B60002AE8D0736859469A46012386
:104C1000A3400968194216D19047736853451FD1C4
:104C2000A422009B52009B58B342D6D01E1EC2D174
:104C3000114B186800F08CFA03B0F0BCBB46B246CA
:104C4000A946A046F0BD31008D31FF3109681942F7
:104C50000DD1434601981968904773685345DFD0DA
:104C6000A422009B52009E58A3E77460CAE7434603
:104C700018689047D1E7C04638040020306800002B
:104C800010B5010000230022002001F0A5F810BD9E
:104C900010B5024900F032FA10BDC046A95E00000E
:104CA000F8B5DE4657464E464546E0B506003C4F51
:104CB000380000F04BFAB46B002C68D1394B03225A
:104CC000F363B8239B00F45004337568F250083343
:104CD000F218043BF2502800042308220021EB6064
:104CE0006C662C606C60AC602C616C61AC615C309B
:104CF000FFF762FE28002C4BED619B462B622B4B8D
:104D000058309A466B622A4B9946AB62294BEB624C
:104D1000984600F017FAB568274B280008220021B2
:104D2000EB606C662C606C60AC602C616C61AC619B
:104D30005C30FFF741FE5B462B6253466B624B468D
:104D40002800AB624346ED61EB62583000F0FAF99F
:104D5000F5681A4B280008220021EB606C662C6075
:104D60006C60AC602C616C61AC615C30FFF724FE60
:104D70005B462B6253466B624B462800AB62434650
:104D8000ED61EB62583000F0DDF90123B3633800C8
:104D900000F0DEF9F0BCBB46B246A946A046F8BD1D
:104DA0008C080020914C0000355C00005D5C000028
:104DB0009D5C0000C95C00000900010012000200B7
:104DC00010B5024800F0C2F910BDC04688080020A6
:104DD00010B5024800F0BCF910BDC046880800209C
:104DE00070B5074D074C641BA41005D0013CA3000F
:104DF000EB589847002CF9D101F08AFC70BDC046F1
:104E00005408002058080020F0B5DE4645465746B5
:104E10004E46E0B5936883460C00904683B0002B65
:104E200023D08B891A0728D50A69002A25D0424643
:104E300016689A072DD50027AC4B00259946BA462F
:104E4000002D58D02B004D4500D9A84B524658464E
:104E5000E169676AB847002858DD43469B68824489
:104E60002D1A181A43469860EAD1002003B0F0BC0E
:104E7000BB46B246A946A046F0BD2100584600F008
:104E80003DFF002800D02DE14246A38916689A070D
:104E9000D1D4DA0742D4002200279146002F25D032
:104EA00080229200A568134200D180E0AA46BD424C
:104EB00000D9AFE09022D200134200D0BBE02068BE
:104EC0005246494600F094FCA3685D1BA5603D0076
:104ED000002723685344236043469B68A9445D1B15
:104EE00043469D60C1D0A389002FD9D1326877682D
:104EF00091460836D2E7336875689A4608369FE7C8
:104F00002100019801F0DEF800282FD00C22A35ECA
:104F1000402201201343A3814042A7E7002300223F
:104F2000B14600271E005B46002092460193002FE9
:104F300027D000282FD03300BB469F4200D99B4684
:104F4000206822696369904204D9A2689D18AB4524
:104F500000DD9EE05B4561DC656A5246E1690198CF
:104F6000A847051ED2DD0120761BC9D043469B68A9
:104F7000AA447F1B5D1B43469D6000D175E7002F4F
:104F8000D7D14B461B689A464B465F6808239C4620
:104F9000E144002FF5D03A000A21504600F09CFB76
:104FA000002800D195E053460130C61AC3E72068B7
:104FB0002369984216D863699A46BB4212D84C4B73
:104FC00038009F4200D94B48514601F0A1FA5346A0
:104FD000656A43434A465846E169A847051E95DD80
:104FE0007F1B79E7BD4200D93D002A00494600F009
:104FF000FFFBA36822685B1B5219A3602260002B91
:10500000EED12100584601F05DF8002800D07DE780
:105010007F1B61E73D00BA46206851E75A4651467A
:1050200000F0E6FB5A46A3685D469B1AA36023681E
:105030005B44236097E7606922682169551A420042
:105040001218D00F8218681C5210C0199246019590
:10505000904201D9824602005B0529D511005846CD
:1050600000F078F8051E37D0019A216900F06EFB38
:10507000A389214A134080221343A3815246019BF6
:105080002561E818D31A3D00BA4620606261A3602A
:1050900016E751462A0000F0ABFB236821005B199C
:1050A0000198236001F00EF8002800D15BE72DE79E
:1050B000584600F003FC051EE0D12169584601F076
:1050C00085F880225946A3899343743A1BB20A603B
:1050D0001EE77B1C1E002FE70C235A4613600C2290
:1050E000A35E15E701204042C0E6C04600FCFF7FFA
:1050F000FEFFFF7FFFFFFF7F7FFBFFFFF8B5474607
:10510000CE4680B5B827804689460026BF00474472
:105110007B68BC685D1E0DD4A389012B07D90E22C4
:10512000A35E013303D021004046C84706436834DC
:10513000013DF1D23F68002FEAD13000C0BCB94632
:10514000B046F8BD7047C0467047C0467047C0467D
:105150007047C046F0B54E464546DE465746E0B578
:105160000D000B35060083B0162D22D8102900D96A
:10517000B2E000F093FB102518230220CC4FFB185F
:105180001A005C68083A944200D1B5E003236268D3
:105190009A431300E268A168CA6091600122E31893
:1051A000596830000A435A6000F080FB2000083044
:1051B00095E007239D4300D58EE0A94200D98BE0FE
:1051C00000F06CFBFC235B009D4200D2A7E1680A63
:1051D00000D18BE0042800D97AE138239846A80949
:1051E00080443930C100B24F79184C680839A14267
:1051F0000ED003239C4604E0002ACBDAE468A142E7
:1052000006D06246636893435A1B0F2AF4DD40467A
:105210003A003C690832944200D178E00323616887
:10522000994389460B00491B0F2900DD7BE17A6118
:105230003A610029B2DA80229200914500D30FE151
:105240005909DA0801238B40D2007968D2190B433F
:1052500091687B60E260A1609460CC600121821063
:105260009140994259D80B4205D1032290434900FD
:1052700004300B42FBD003239846C3009946B9443F
:10528000CC4682466346DC68A44507D12CE1002A5F
:1052900000DB35E1E468A44500D125E142466368BE
:1052A00093435A1B0F2AF2DD012080466119054302
:1052B0006560A068E5680837C560A860404610438F
:1052C000F960B9604860CF6030008F60E25000F054
:1052D000EDFA2000083002E00C230020336003B018
:1052E000F0BCBB46B246A946A046F0BD80213F2394
:1052F00040209846890076E7DC680230A34200D05F
:1053000044E73A003C690832944200D086E7012124
:105310007B68821091409942A5D90323BC686268DA
:105320009A439146954203D8531B0F2B00DD89E029
:1053300023004B445F4A01935F4B93461B681268FE
:10534000EB18013200D13DE15C4A944663441B0BEB
:105350001B0300933000009900F05AFC03008046C4
:10536000013300D1FAE0019B834200D9F4E0544BB1
:1053700000981A009A461268030094465146634406
:105380000B6001991A00414500D151E15B461B6851
:10539000013300D156E1434601995B1A9A185346EE
:1053A0001A600723424641461A400192194200D131
:1053B00012E108239846881A424B009980444144E0
:1053C0009B1A5B1A1B051B0D0091300019009B46B0
:1053D00000F01EFC431C00D150E14346C01A0300FC
:1053E0005B440093534652461B6801215B441360A3
:1053F00042464046BA60009A0A434260BC4200D12D
:1054000024E14A460F2A00D822E107200C3A8243C1
:1054100060680140052011436160A1184860886000
:105420000F2A00D935E142464446526826490868A9
:10543000984200D20B6025490868984200D38FE05B
:105440000B608DE00122290013431143651961604F
:105450003000BD606B6000F029FA200008303EE7A4
:105460005A0A042A72D9142A00D9C5E011005C3204
:105470005B31D20008235B429C46BA1894446346D1
:105480009A6803239846944500D19EE043465168AC
:105490009943494502D992689445F7D1D3689C460F
:1054A0007B686146A260E1608C60D460D6E6C0464D
:1054B0003C04002044080020C00800200F10000019
:1054C0009008002008100000B8080020BC08002048
:1054D000142852D9542800D996E06E239846280BF8
:1054E00080446F30C1007EE608239B46073BDC44C6
:1054F0009B46DA4443465246134200D0C2E64CE093
:105500000122E318596830000A435A60E368A26830
:10551000D3609A6000F0CAF920000830DFE62B0063
:10552000E80808332AE6012360191D4365607861A5
:105530003861C26082601A004B460A434260300004
:10554000E15000F0B3F920000830C8E69A091100D4
:1055500039323831D2008DE7BC4260D0BC68626815
:1055600003239A43531B954202D80F2B00DD69E7B2
:10557000300000F09BF90020B1E65B2398468044A0
:105580005C30C1002FE608235B429C46E1444B4659
:105590009B6801384B4500D098E043460342F2D166
:1055A0007B688B437B604900994200D9B5E60029AE
:1055B00004D1B2E6042294464900E2440B42F9D0F9
:1055C00050465AE610330093C4E68910023B8B40E4
:1055D00079680B437B6064E7009B300043445B4287
:1055E0001B051B0D19009B4600F012FB431C00D04D
:1055F000F3E600239B46F5E6542A2BD81A0B11003C
:105600006F326E31D20035E7AA235B0098422BD867
:10561000DD3B9846E80B80447830C100E3E52C4B35
:10562000009A9A461B689C46534662441A60ADE64F
:10563000090500D0AAE60200BC684A4401310A43C9
:105640006260F3E65B4642461A60AAE64446EDE62F
:1056500041608DE7AA2149008A4224D8DA0B110063
:1056600078327731D20005E71A4B984224D87C2350
:105670009846A80C80447D30C100B4E5009A019B97
:1056800094464246083B63449B1A009300239B4682
:10569000A8E621003000083100F098FD5346BC68B0
:1056A0001B686268C2E60B498A420BD89A0C11004B
:1056B0007D327C31D200DDE6FE217E237F209846BC
:1056C000890090E5FE227E219200D3E67B686AE79E
:1056D000900800205405000070B5CCB283070DD0AF
:1056E000531E002A0FD0032504E00130284206D0C3
:1056F000013B08D30278A242F7D170BD1300032BFF
:105700000CD8002B01D10020F7E7C31802E00130CC
:105710008342F8D00278A242F9D1EEE7FF25294072
:105720000D0229430D04074E0D43026806496A40E5
:10573000511891433142E8D1043B0430032BF4D893
:10574000DFE7C04680808080FFFEFEFEF0B5C646E3
:1057500000B50F2A41D903270D003E0005430C0078
:1057600003002E402F423DD11500103D2D09A846C3
:105770002D01AC46844427681D001F6067685F6088
:10578000A7689F60E7681034DF6010336545F2D189
:1057900045460F230C2401352D01491913404519A5
:1057A000144222D08C59AC5104369C1B032CF9D8DE
:1057B000043B9B0801339B00ED18C91803231A40D2
:1057C000561E002A06D00023CC5C1A00EC5401338C
:1057D0009642F9D180BCB846F0BD0500561E002A9D
:1057E000F1D1F7E70500561EEDE71A00F6E7C046CF
:1057F000F0B588420AD98B18984207D2531E002A66
:1058000003D0CA5CC254013BFBD2F0BD0F2A0BD8B7
:105810000500561E002AF8D00023CC5C1A00EC5478
:1058200001339642F9D1F0E703270D003E0005430E
:105830000C0003002E402F422BD11500103D2D09E6
:10584000AC462F013F1825681D6065685D60A5683E
:105850009D60E5681034DD601D001033BD42F2D15B
:1058600065460F230C2401352D01491913404519B4
:10587000144211D08C59AC5104369C1B032CF9D81E
:10588000043B9B0801339B00ED18C91803231A4001
:10589000BFE70500561EBFE71A00BAE710B5024879
:1058A000FFF754FC10BDC0468408002010B5024824
:1058B000FFF74EFC10BDC04684080020F0B55746E7
:1058C0004546DE464E46E0B50C000700904683B0E4
:1058D000002900D1A8E045460B35FFF7DFFF162D64
:1058E00070D810251023A84570D82600083E71688E
:1058F00003220800904381460096984200DB77E03F
:10590000C24A301893469268824200D1CAE0426887
:1059100001900092012292465046009A82430198DB
:1059200094468346DC44624650465268024200D0A8
:1059300071E00320009ACB4682439446E3449B45A2
:1059400050DA52460A4211D103213268B21A924605
:1059500052688A436146511849448B46994200DB9C
:1059600078E04A4493469A4200DB78E041463800AA
:10597000FFF7F0FB8046002820D07368B446009300
:1059800001230099020099430B00083A63449342B3
:1059900000D1F7E04A46043A242A00D9F7E0030090
:1059A0002100132A00D9C8E00A681A604A685A60C0
:1059B0008A689A602100380000F008FC3800FFF780
:1059C00075FF07E007239D432B1E8CDA0C233B60F9
:1059D00000239846404603B0F0BCBB46B246A946F9
:1059E000A046F0BDD946019AD3689268D3609A6008
:1059F0004B465B1B0F2B1CD801214A4673680B409A
:105A0000134373604E447368194371603800FFF7A5
:105A10004DFFA046DEE70842A8D103213268B21A42
:105A2000924652688A439CE71100FFF793FB804639
:105A3000D0E7012072687119024003431543756075
:105A40004B604E447368083118437060380000F0B2
:105A5000BDFBDBE7019AD3689268D3609A60534636
:105A60005246DB6892685646D3609A604A46043ACA
:105A70000836242A6BD83300132A09D953462168E3
:105A800099606168D9601B2A00D98EE00834103310
:105A90002268D9461A6062685A60A26834009A6027
:105AA0005646A5E75068032290430D32824694463D
:105AB000CA44AC44E24552DACA0700D556E7316819
:105AC000721A0321924652688A4310180100494411
:105AD00000918C4500DD44E753465246DB689268EE
:105AE000D3609A6008234A465344043A9846242ACD
:105AF00075D8132A08D95346216899606168D9601E
:105B00001B2A71D80834103322681A6062685A6000
:105B1000A2689A60534659195B469960009B380009
:105B20005A1B01231A434A605246526813401D43D0
:105B300053465D60FFF7BAFE4CE72168016061687B
:105B400041601B2A27D82100083308312CE72100A7
:105B500030003400FFF74CFED946564648E75B4616
:105B60000098A0464119996053465A1B01231A43D5
:105B70004A6041680B401D43456038000091FFF7C3
:105B800095FE27E703225B689343994430E72100A1
:105B9000FFF72EFE0EE7A1688160E168C160242A4C
:105BA0000CD0210010331031FEE6A1681961E168C4
:105BB0005961242A0BD01034183369E72269210077
:105BC000026102006069183118335061ECE6226905
:105BD0009A61524661692033D161183458E7210037
:105BE0001800FFF705FE95E7A1681961E1685961A2
:105BF000242A02D01034183386E722699A6152466B
:105C000061692033D16118347EE7C0463C0400202E
:105C1000002370B5064D040008002B6000F062FD03
:105C2000431C00D070BD2B68002BFBD02360F9E72C
:105C30007C08002070B50C000E25495F00F02EFC9A
:105C4000002803DB236D1B18236570BDA389024A5E
:105C50001340A381F9E7C046FFEFFFFFF8B50C0042
:105C60001F000C23C95E05001600CB050AD40A4BA1
:105C7000320019402800A1810E23E15E3B0000F0B4
:105C800029F8F8BD0E23E15E0022022300F080FB1C
:105C90000C23E15EEBE7C046FFEFFFFF70B50C00A1
:105CA0000E25495F00F074FB431C06D08023A289B7
:105CB0005B011343A381206570BDA389014A134092
:105CC000A381F9E7FFEFFFFF10B50E23C95E00F0D7
:105CD000D9F810BD70B50400080011001A000023A7
:105CE000054D2B60FEF731FD431C00D070BD2B68C5
:105CF000002BFBD02360F9E77C080020354B70B502
:105D0000050018680C00002802D0836B002B21D0FE
:105D10000C23E25EA389190723D5216900292BD022
:105D2000D80708D50020A06060694042A06100202B
:105D3000002908D070BD00209D0700D46069A060D4
:105D400000200029F6D11B06F4D540231A43A28176
:105D50000138EFE7FEF7A4FF0C23E25EA3891907E1
:105D6000DBD4D9062DD55B0716D4216908231A4345
:105D7000A28193B20029D3D1A02080268000B60052
:105D80001840B042CCD02100280000F015FB0C23B5
:105D9000E25E2169A389C3E7216B00290AD02300B1
:105DA0004033994204D0280000F010FA0C23E25E40
:105DB0000023236324239A43002321696360216025
:105DC000D4E709232B60402301201A43A2814042DB
:105DD000B0E7C04608000020F0B5D6464F4646461C
:105DE000C0B5264F82B0060038689246984689466C
:105DF000FFF7ACF9224B1B680193A423019A5B00C7
:105E0000D558002D2ED06C681F2C30DC002E0FD101
:105E1000631C6B604B460234A40038686351FFF783
:105E200097F9002002B0E0BCBA46B146A846F0BDE2
:105E3000882251462800A300EB189950873AA240C7
:105E40008930FF30016811430160842140464900D8
:105E50005850022EDCD12B008D33FF3319680A43D2
:105E60001A60D5E715004D35FF35D550CBE73868BA
:105E7000FFF76EF901204042D4E7C0463804002005
:105E800030680000002370B5064D040008002B6048
:105E9000FEF734FC431C00D070BD2B68002BFBD0F8
:105EA0002360F9E77C080020F8B506000C1E4DD0F1
:105EB000002802D0836B002B4AD00127636E3B423F
:105EC00035D00C22A35E002B40D02100300000F022
:105ED00059F8E36A0500002B04D03000E1699847C7
:105EE00000283CDBA3891B063ED4216B002908D087
:105EF00023004033994202D0300000F067F90023BC
:105F00002363616C002904D0300000F05FF90023A6
:105F10006364FEF755FF0023A381636EDB072CD576
:105F2000A06DFFF711F9FEF753FF2800F8BDA38914
:105F30009B05CAD4A06DFFF709F90C22A35E002BC4
:105F4000C3D1636E1D003D403B4212D00025ECE7FB
:105F50000127FEF7A5FE636E3B42B2D1E7E70125BC
:105F6000A3896D421B06C0D53000216900F02EF9CF
:105F7000BBE7A06DFFF7ECF8D7E7A06DFFF7E8F8F7
:105F8000CEE7C046F0B5C6460C0000B5A2898046F3
:105F90000C23C95E13074CD4802362681B010B439A
:105FA000A381002A66DDA66A002E3ED04246414605
:105FB000156800220A609AB2DB0460D40123002233
:105FC0004046E169B047431C68D0A289A66A5307DE
:105FD00006D56368C01A236B002B01D0E36BC01A8F
:105FE00000230200E1694046B047431C49D14346C3
:105FF0001B68002B45D01D2B01D0162B57D1A38930
:106000002F4A1340A3810023636023692360434622
:10601000216B1D60002908D023004033994202D033
:10602000404600F0D3F800232363002080BCB8462C
:10603000F0BD2669002EF8D0236826609D1B002342
:10604000920700D16369A360002D04DCEDE73618E8
:106050002D1A002DE9DD2B0032004046E169676A08
:10606000B8470028F3DC40220120A38940421343B3
:10607000A381DBE7E26B002A00DD94E7D5E7206D22
:10608000A5E7A3890E4A13400022626022691BB271
:10609000A3812260DB04BAD52065B8E743461B68BC
:1060A000002B00D191E71D2B06D0162B04D04022E7
:1060B000A3891343A381B9E7434600201D60B5E7D8
:1060C000FFF7FFFF70B505000C00002802D0836BBE
:1060D000002B15D00C22A35E002B17D0626ED207C6
:1060E00001D49B0514D528002100FFF74BFF636EF8
:1060F0000500DB0702D4A3899B0515D5280070BDD8
:10610000FEF7CEFD0C22A35E002BE7D10025F5E7BC
:10611000A06DFFF71BF828002100FFF733FF636E27
:106120000500DB07EAD4E6E7A06DFFF711F8E5E725
:10613000F8B50C000500FFF7B1FB204FBB685E68A7
:1061400003239E431E4B341B9C466444240B013C9A
:10615000113324039C4207DB00212800FFF758FD80
:10616000BB689B19984204D02800FFF79FFB0020D2
:10617000F8BD28006142FFF74BFD431C0DD0012202
:10618000BB68361B16435E600E4B28001A68141B52
:106190001C60FFF78BFB0120EAE700212800FFF7D6
:1061A00037FDBA68831A0F2BDEDD07490968401AEC
:1061B0000449086001210B435360D5E73C040020EB
:1061C000EF0F00009008002044080020F0B5C646FC
:1061D00005000C0000B500294FD0FFF75FFB210040
:1061E00008394C68012622000320B2438F187B68CF
:1061F0008343624898468368BB426AD043467B60CB
:1062000026421ED108239C460C688444091B12199F
:106210008C6864454FD0CB68E3609C604346FC18B3
:106220006468344211D1BB68554C4244A34200D14A
:106230007EE0FC68DC60A360012313434B608A505E
:1062400006E0FC1864683442EDD016434E603A60B4
:1062500080239B009A4213D25409D3080122A24002
:106260004468DB002243426018188368C8608B6072
:106270008160D9602800FFF719FB80BCB846F0BDEB
:10628000530A042B3ED89409260039343836E400EA
:1062900004192368083C03279C4242D05868B8433D
:1062A000904202D99B689C42F8D1DC68CC608B603C
:1062B000A160D960DEE74346F8184068304257D104
:1062C000FB68B86842441643C36098604E608A50C9
:1062D000D0E713004344264206D10A68891A8C6825
:1062E0009B18CA68E260946001221A434A60254AFA
:1062F000816012689A42BDD8234B28001968FFF7C5
:1063000017FFB7E7142B07D9542B1AD8140B260004
:106310006F346E36E400BBE71E005C335B36DC0096
:10632000B6E70122B610B240466832434260BDE78C
:10633000D9609960CB608B60012313434B608A5016
:1063400098E7AA246400A34205D8D40B2600783429
:106350007736E4009CE70D4CA34205D8940C260048
:106360007D347C36E40093E7FE247E26A4008FE78C
:10637000330013434B603A607CE7C0463C04002086
:106380004404002048080020C008002054050000F4
:1063900070B50400080011001A000023054D2B60A1
:1063A000FEF7C3F9431C00D070BD2B68002BFBD057
:1063B0002360F9E77C080020F0B5C64600B58B895C
:1063C00005000C0096B09A0709D5230043332360DB
:1063D00023610123636116B080BCB846F0BD0E2274
:1063E000895E002929DB6A4600F06CF8002823DB6F
:1063F000F023019F1B021F40264B80269C466744CA
:106400007B425F418023DB009846360141462800ED
:10641000FEF7A0FE00281CD080221F4BEB63A3894F
:106420002060134342461BB2A38120616261002FAA
:106430001ED13343A381CEE7A38900271B0612D5C3
:1064400040239846280041460026FEF783FE002898
:10645000E2D10C22A35E9A05BDD40322934302220B
:106460001343A381B1E78023DB0098460026CDE7E4
:1064700028000E23E15E00F039F8002802D10C223A
:10648000A35ED6E70322A3899343012213431BB2E1
:10649000CFE7C04600E0FFFF914C000070B504005C
:1064A000080011001A000023054D2B60FEF745F986
:1064B000431C00D070BD2B68002BFBD02360F9E794
:1064C0007C080020002370B5074D0400080011006F
:1064D0002B60FEF71BF9431C00D070BD2B68002B0E
:1064E000FBD02360F9E7C0467C080020002370B58C
:1064F000064D040008002B60FEF710F9431C00D085
:1065000070BD2B68002BFBD02360F9E77C080020CE
:1065100003460B437FD4002243088B4274D3030904
:106520008B425FD3030A8B4244D3030B8B4228D3A5
:10653000030C8B420DD3FF22090212BA030C8B42CB
:1065400002D31212090265D0030B8B4219D300E06B
:10655000090AC30B8B4201D3CB03C01A5241830BF0
:106560008B4201D38B03C01A5241430B8B4201D3A0
:106570004B03C01A5241030B8B4201D30B03C01AC9
:106580005241C30A8B4201D3CB02C01A5241830A43
:106590008B4201D38B02C01A5241430A8B4201D372
:1065A0004B02C01A5241030A8B4201D30B02C01A9C
:1065B0005241CDD2C3098B4201D3CB01C01A524103
:1065C00083098B4201D38B01C01A524143098B428C
:1065D00001D34B01C01A524103098B4201D30B0175
:1065E000C01A5241C3088B4201D3CB00C01A52419A
:1065F00083088B4201D38B00C01A524143088B425F
:1066000001D34B00C01A5241411A00D201465241F7
:10661000104670475DE0CA0F00D04942031000D316
:106620004042534000229C4603098B422DD3030A6B
:106630008B4212D3FC22890112BA030A8B420CD37B
:10664000890192118B4208D3890192118B4204D3A4
:1066500089013AD0921100E08909C3098B4201D324
:10666000CB01C01A524183098B4201D38B01C01A5E
:10667000524143098B4201D34B01C01A52410309D5
:106680008B4201D30B01C01A5241C3088B4201D384
:10669000CB00C01A524183088B4201D38B00C01A31
:1066A0005241D9D243088B4201D34B00C01A524108
:1066B000411A00D20146634652415B10104601D395
:1066C0004042002B00D54942704763465B1000D31F
:1066D000404201B50020FEF735F902BD0029F8D08F
:1066E00016E77047044A03001068002802D0C31858
:1066F000136070470148FAE7C4080020C80800206A
:10670000FEE7C046F8B5C046F8BC08BC9E467047D8
:10671000F8B5C046F8BC08BC9E4670470A0A002B74
:106720002D2D2D2D2D2D2D2D2D2D2D2D2D2D2D2D99
:106730002D2D2D2D2D2D2D2D2D2D2D2B0A007C2099
:1067400020204D756C74692D426F6F742053616DFC
:10675000706C6520436F646520207C0A00426F6F77
:10676000742066726F6D203078343030300A0056F5
:1067700045434D4150203D200030780053656C6505
:106780006374206F6E6520626F6F7420696D61673E
:10679000653A200A005B315D20426F6F7420312C16
:1067A0002062617365203D203078343030300A003B
:1067B0005B4F74686572735D20426F6F742C20624A
:1067C000617365203D203078300A00464D435F53A9
:1067D0006574566563746F72506167654164647275
:1067E000206661696C656421000A446F6E650A0069
:1067F0000000000004000000080000000C00000081
:10680000000000000400000008000000100000006C
:106810000000000000000000000000001027000041
:106820000000000000366E010000000000000000C3
:0C683000100000200A0000000000000022
:08683C004CD9FF7F01000000B0
:106844001800000000366E01100000200000000057
:1068540000000000FC02002064030020CC030020A0
:106864000000000000000000000000000000000024
:106874000000000000000000000000000000000014
:106884000000000000000000000000000000000004
:1068940000000000000000000000000000000000F4
:1068A40000000000000000000000000000000000E4
:1068B40000000000000000000000000000000000D4
:1068C40000000000000000000000000000000000C4
:1068D40000000000000000000000000000000000B4
:1068E40000000000000000000000000000000000A4
:1068F4000000000000000000010000000000000093
:106904000E33CDAB34126DE6ECDE05000B00000057
:106914000000000000000000000000000000000073
:106924000000000000000000000000000000000063
:106934000000000000000000000000000000000053
:106944000000000000000000000000000000000043
:106C74000000000000000000800800200000000068
:106C8400000000003C0400203C04002044040020D8
:106C9400440400204C0400204C0400205404002030
:106CA400540400205C0400205C04002064040020E0
:106CB400640400206C0400206C0400207404002090
:106CC400740400207C0400207C0400208404002040
:106CD400840400208C0400208C04002094040020F0
:106CE400940400209C0400209C040020A4040020A0
:106CF400A4040020AC040020AC040020B404002050
:106D0400B4040020BC040020BC040020C4040020FF
:106D1400C4040020CC040020CC040020D4040020AF
:106D2400D4040020DC040020DC040020E40400205F
:106D3400E4040020EC040020EC040020F40400200F
:106D4400F4040020FC040020FC04002004050020BE
:106D5400040500200C0500200C050020140500206B
:106D6400140500201C0500201C050020240500201B
:106D7400240500202C0500202C05002034050020CB
:106D8400340500203C0500203C050020440500207B
:106D9400440500204C0500204C050020540500202B
:106DA400540500205C0500205C05002064050020DB
:106DB400640500206C0500206C050020740500208B
:106DC400740500207C0500207C050020840500203B
:106DD400840500208C0500208C05002094050020EB
:106DE400940500209C0500209C050020A40500209B
:106DF400A4050020AC050020AC050020B40500204B
:106E0400B4050020BC050020BC050020C4050020FA
:106E1400C4050020CC050020CC050020D4050020AA
:106E2400D4050020DC050020DC050020E40500205A
:106E3400E4050020EC050020EC050020F40500200A
:106E4400F4050020FC050020FC05002004060020B9
:106E5400040600200C0600200C0600201406002066
:106E6400140600201C0600201C0600202406002016
:106E7400240600202C0600202C06002034060020C6
:106E8400340600203C0600203C0600204406002076
:106E9400440600204C0600204C0600205406002026
:106EA400540600205C0600205C06002064060020D6
:106EB400640600206C0600206C0600207406002086
:106EC400740600207C0600207C0600208406002036
:106ED400840600208C0600208C06002094060020E6
:106EE400940600209C0600209C060020A406002096
:106EF400A4060020AC060020AC060020B406002046
:106F0400B4060020BC060020BC060020C4060020F5
:106F1400C4060020CC060020CC060020D4060020A5
:106F2400D4060020DC060020DC060020E406002055
:106F3400E4060020EC060020EC060020F406002005
:106F4400F4060020FC060020FC06002004070020B4
:106F5400040700200C0700200C0700201407002061
:106F6400140700201C0700201C0700202407002011
:106F7400240700202C0700202C07002034070020C1
:106F8400340700203C0700203C0700204407002071
:106F9400440700204C0700204C0700205407002021
:106FA400540700205C0700205C07002064070020D1
:106FB400640700206C0700206C0700207407002081
:106FC400740700207C0700207C0700208407002031
:106FD400840700208C0700208C07002094070020E1
:106FE400940700209C0700209C070020A407002091
:106FF400A4070020AC070020AC070020B407002041
:10700400B4070020BC070020BC070020C4070020F0
:10701400C4070020CC070020CC070020D4070020A0
:10702400D4070020DC070020DC070020E407002050
:10703400E4070020EC070020EC070020F407002000
:10704400F4070020FC070020FC07002004080020AF
:10705400040800200C0800200C080020140800205C
:10706400140800201C0800201C080020240800200C
:10707400240800202C0800202C08002034080020BC
:1070840034080020FFFFFFFF00000200714B0000E6
:087094006941000041410000C8
:040000030000475D55
:00000001FF
